:100000000C942A000C9447000C9447000C94470071
:100010000C9447000C9447000C9447000C94470044
:100020000C9447000C9447000C9447000C94470034
:100030000C9447000C9447000C9447000C94470024
:100040000C9447000C9447000C9447000C94470014
:100050000C94470011241FBECFE5D8E0DEBFCDBF12
:1000600010E0A0E6B0E0EAEDF0E002C005900D92ED
:10007000A036B107D9F710E0A0E6B0E001C01D92AC
:10008000A036B107E1F70E9449000C946B000C9474
:100090000000A09AC1E085B38C2785BB86E00E9452
:1000A0005D008FEF98EFA5E181509040A040E1F70F
:1000B00000C000000E946600EECF91B5986091BD2F
:1000C000883018F491B5892B81BD089581B58C6075
:0A00D00081BD11BC0895F894FFCF24
:00000001FF
