S00B00004144432E7372656351
S11300000C942A000C9447000C9447000C9447006D
S11300100C9447000C9447000C9447000C94470040
S11300200C9447000C9447000C9447000C94470030
S11300300C9447000C9447000C9447000C94470020
S11300400C9447000C9447000C9447000C94470010
S11300500C94470011241FBECFE5D8E0DEBFCDBF0E
S113006010E0A0E6B0E0E6EDFDE002C005900D92E0
S1130070A636B107D9F710E0A6E6B0E001C01D929C
S1130080A836B107E1F70E94AE000C94E9060C947F
S11300900000FC01909367008093660096B1808114
S11300A0892B86B997B18381892B87B997B18281CE
S11300B0892B87B987B1807E87B997B18481892BD1
S11300C087B94AB321E030E0C901048002C0880F37
S11300D0991F0A94E2F7809584238ABB96B185819F
S11300E0892B86B98581883009F47894379A81817F
S11300F0882309F4369A089517B816B880B78F7113
S113010080BF0895E0916600F0916700818181309D
S113011009F4369A0895FC01613011F4349BFECF42
S1130120A0916600B091670013968C911397882371
S113013061F424B130E03183208345B1942F80E011
S1130140822B932B91838083089585B190E0880F4F
S1130150991F880F991F918380830895CF93DF930C
S1130160CDB7DEB728970FB6F894DEBF0FBECDBF6C
S11301700E940B0583E08D831E821C8281E08A83AA
S113018086E0898380E48B8318861F8281E663E09E
S113019040E00E941301CE0101960E94490080E6CE
S11301A090E00E9491050F2EFAE0EF2EFF24F02D2F
S11301B00E94820000E010E0C80161E00E948B0010
S11301C081E066E00E94DD04F8016081718180E0D5
S11301D090E00E94D1052AE038E240EA5BE30E9405
S11301E0370620E030E048EC52E40E9437060E94D3
S11301F0A005DC01CB018A30910524F4805D0E94C6
S11302006A05D6CFB7010E94C206082F862F805DEB
S11302100E946A0581E067E00E94DD04802F805D12
S11302200E946A05C5CF843409F471C0853448F44A
S1130230823499F1833408F04DC0813409F083C0CD
S11302400FC0823651F1833620F4813609F07BC029
S113025007C0833609F43EC0843609F074C057C021
S1130260413069F42AB381E090E0AC0102C0440F4C
S1130270551F6A95E2F7BA01622B6ABB08952AB347
S113028081E090E0AC0102C0440F551F6A95E2F78B
S1130290BA01609562236ABB0895413069F427B3BB
S11302A081E090E0AC0102C0440F551F6A95E2F76B
S11302B0BA01622B67BB089527B381E090E0AC01DB
S11302C002C0440F551F6A95E2F7BA016095622394
S11302D067BB0895413069F424B381E090E0AC0138
S11302E002C0440F551F6A95E2F7BA01622B64BB42
S11302F0089524B381E090E0AC0102C0440F551F7F
S11303006A95E2F7BA016095622364BB08954130AF
S113031069F421B381E090E0AC0102C0440F551FA1
S11303206A95E2F7BA01622B61BB089521B381E0BB
S113033090E0AC0102C0440F551F6A95E2F7BA0180
S11303406095622361BB08958434D9F0853438F410
S1130350823499F0833498F48134A1F40CC0823649
S113036061F0833618F4813669F405C0833639F0B8
S1130370843641F406C06ABB089567BB089564BB24
S1130380089561BB0895843409F471C0853448F438
S1130390823499F1833408F04DC0813409F083C06C
S11303A00FC0823651F1833620F4813609F07BC0C8
S11303B007C0833609F43EC0843609F074C057C0C0
S11303C0413069F42BB381E090E0AC0102C0440FEA
S11303D0551F6A95E2F7BA01622B6BBB08952BB3E4
S11303E081E090E0AC0102C0440F551F6A95E2F72A
S11303F0BA01609562236BBB0895413069F428B358
S113040081E090E0AC0102C0440F551F6A95E2F709
S1130410BA01622B68BB089528B381E090E0AC0177
S113042002C0440F551F6A95E2F7BA016095622332
S113043068BB0895413069F425B381E090E0AC01D4
S113044002C0440F551F6A95E2F7BA01622B65BBDF
S1130450089525B381E090E0AC0102C0440F551F1C
S11304606A95E2F7BA016095622365BB089541304D
S113047069F422B381E090E0AC0102C0440F551F3F
S11304806A95E2F7BA01622B62BB089522B381E058
S113049090E0AC0102C0440F551F6A95E2F7BA011F
S11304A06095622362BB08958434D9F0853438F4AE
S11304B0823499F0833498F48134A1F40CC08236E8
S11304C061F0833618F4813669F405C0833639F057
S11304D0843641F406C06BBB089568BB089565BBC0
S11304E0089562BB0895843409F43DC0853440F412
S11304F08234F9F0833450F5813409F040C00CC0E3
S11305008236B9F0833618F48136C9F505C08336CE
S1130510E9F08436A1F527C02BB381E090E0AC016B
S113052002C0440F551F6A95E2F7BA0162276BBBFC
S1130530089528B381E090E0AC0102C0440F551F38
S11305406A95E2F7BA01622768BB089525B381E092
S113055090E0AC0102C0440F551F6A95E2F7BA015E
S1130560622765BB089522B381E090E0AC0102C02C
S1130570440F551F6A95E2F7BA01622762BB0895DA
S1130580843409F47AC0853448F48234B1F1833474
S113059008F053C0813409F08FC00FC0823669F16E
S11305A0833620F4813609F087C007C0833609F406
S11305B044C0843609F080C060C09BB381E08927C1
S11305C08BBB9BB382E089278BBB9BB384E08927D9
S11305D08BBB9BB388E089278BBB9BB380E18927C6
S11305E08BBB9BB380E289278BBB9BB380E48927B9
S11305F08BBB8BB380588BBB089598B381E089275C
S113060088BB98B382E0892788BB98B384E08927A4
S113061088BB98B388E0892788BB98B380E1892791
S113062088BB98B380E2892788BB98B380E4892784
S113063088BB88B3805888BB089595B381E0892727
S113064085BB95B382E0892785BB95B384E0892770
S113065085BB95B388E0892785BB95B380E189275D
S113066085BB95B380E2892785BB95B380E4892750
S113067085BB85B3805885BB089592B381E08927F3
S113068082BB92B382E0892782BB92B384E089273C
S113069082BB92B388E0892782BB92B380E1892729
S11306A082BB92B380E2892782BB92B380E489271C
S11306B082BB82B3805882BB0895843409F451C04C
S11306C0853440F4823439F18334C0F5813409F03F
S11306D05AC00EC08236F9F0833620F4813609F010
S11306E052C006C0833651F1843609F04CC039C07B
S11306F029B381E090E0062E02C0880F991F0A9466
S1130700E2F730E08223932302C0959587956A959A
S1130710E2F7982F38C026B381E090E0062E02C09D
S1130720880F991F0A94E2F730E08223932302C0D2
S1130730959587956A95E2F7982F25C023B381E0B4
S113074090E0062E02C0880F991F0A94E2F730E069
S11307508223932302C0959587956A95E2F7982F93
S113076012C020B381E090E0062E02C0880F991FCA
S11307700A94E2F730E08223932302C0959587958B
S11307806A95E2F7982F892F08958434D9F0853437
S113079038F4823499F0833498F48134A1F40CC091
S11307A0823661F0833618F4813669F405C08336E5
S11307B039F0843641F406C099B305C096B303C03A
S11307C093B301C090B3892F0895843409F43DC0D4
S11307D0853440F48234F9F0833450F5813409F0DF
S11307E040C00CC08236B9F0833618F48136C9F59E
S11307F005C08336E9F08436A1F527C02BB381E028
S113080090E0AC0102C0440F551F6A95E2F7BA01AB
S1130810622B6BBB089528B381E090E0AC0102C069
S1130820440F551F6A95E2F7BA01622B68BB08951D
S113083025B381E090E0AC0102C0440F551F6A95D6
S1130840E2F7BA01622B65BB089522B381E090E020
S1130850AC0102C0440F551F6A95E2F7BA01622B3E
S113086062BB08956F70843451F1853438F4823456
S1130870C1F08334E8F4813441F50CC0823689F048
S1130880833618F4813609F505C0833689F0843639
S1130890E1F415C08BB3807F8BBB8BB3682B6BBB30
S11308A0089588B3807F88BB88B3682B68BB08959C
S11308B085B3807F85BB85B3682B65BB089582B300
S11308C0807F82BB82B3682B62BB08956295607F90
S11308D0843451F1853438F48234C1F08334E8F43B
S11308E0813441F50CC0823689F0833618F48136A0
S11308F009F505C0833689F08436E1F415C08BB35D
S11309008F708BBB8BB3682B6BBB089588B38F70D0
S113091088BB88B3682B68BB089585B38F7085BB8B
S113092085B3682B65BB089582B38F7082BB82B395
S1130930682B62BB089582E661E041E00E94C30136
S11309408FE99FE00197F1F700C0000082E661E0C3
S113095040E00E94C3018FE99FE00197F1F700C0D6
S113096000000895CF93C82F82E662E040E00E9421
S1130970C3016C2F62956F7082E60E94660482E662
S113098060E040E00E94C3010E949B0482E66C2F59
S11309900E94660482E660E040E00E94C3010E9477
S11309A09B048FEC97E00197F1F700C00000CF9112
S11309B0089581E00E94B2040895813019F4962FBD
S11309C091581FC0823019F4962F91541AC0833065
S11309D019F4962F9D5615C0843019F4962F9D5204
S11309E010C0853038F4653138F4882339F0662333
S11309F039F007C090E805C090E803C090E801C052
S1130A0090E8892F0E94B2048FEC97E00197F1F7E8
S1130A1000C0000008958FE798E3A1E08150904062
S1130A20A040E1F700C0000082E664E041E00E94DB
S1130A30130182E665E041E00E94130182E666E06C
S1130A4041E00E94130182E667E041E00E94130145
S1130A5082E662E041E00E94130182E661E041E047
S1130A600E94130182E660E041E00E94130182E6E5
S1130A7062E040E00E94C30182E00E94B204AFEC55
S1130A80B7E01197F1F700C0000088E20E94B204B9
S1130A908FEC97E00197F1F700C000008EE00E9410
S1130AA0B204AFECB7E01197F1F700C0000081E0A9
S1130AB00E94B2048FE697E10197F1F700C00000AD
S1130AC086E00E94B204AFE9BFE01197F1F700C0DD
S1130AD000000895CF93C82F82E662E040E00E94B0
S1130AE0C3016C2F62956F7082E60E94660482E6F1
S1130AF060E041E00E94C3010E949B0482E66C2FE7
S1130B000E94660482E660E041E00E94C3010E9404
S1130B109B048FEC97E00197F1F700C00000CF91A0
S1130B200895CF93DF93EC018881882331F02196D7
S1130B300E946A0589918823D9F7DF91CF9108959E
S1130B4004D06894B1118DC0089570D088F09F5777
S1130B5090F0B92F9927B751A0F0D1F0660F771F05
S1130B60881F991F1AF0BA95C9F712C0B13081F0E5
S1130B7077D0B1E0089574C0672F782F8827B85FC5
S1130B8039F0B93FCCF3869577956795B395D9F746
S1130B903EF490958095709561957F4F8F4F9F4F50
S1130BA00895E89409C097FB3EF49095809570955C
S1130BB061957F4F8F4F9F4F9923A9F0F92F96E9A5
S1130BC0BB279395F695879577956795B795F1111A
S1130BD0F8CFFAF4BB0F11F460FF1BC06F5F7F4FB7
S1130BE08F4F9F4F16C0882311F096E911C07723C9
S1130BF021F09EE8872F762F05C0662371F096E8D2
S1130C00862F70E060E02AF09A95660F771F881FA0
S1130C10DAF7880F9695879597F9089557FD9058B8
S1130C20440F551F59F05F3F71F04795880F97FBAC
S1130C30991F61F09F3F79F0879508951216130666
S1130C401406551FF2CF4695F1DF08C01616170695
S1130C501806991FF1CF86957105610508940895CA
S1130C60E894BB2766277727CB0197F908950BD023
S1130C7078C069D028F06ED018F0952309F05AC0D6
S1130C805FC01124EECFCADFA0F3959FD1F3950F77
S1130C9050E0551F629FF001729FBB27F00DB11DFC
S1130CA0639FAA27F00DB11DAA1F649F6627B00D8C
S1130CB0A11D661F829F2227B00DA11D621F739F75
S1130CC0B00DA11D621F839FA00D611D221F749F83
S1130CD03327A00D611D231F849F600D211D822FCA
S1130CE0762F6A2F11249F5750408AF0E1F0882311
S1130CF04AF0EE0FFF1FBB1F661F771F881F91501E
S1130D005040A9F79E3F510570F014C0AACF5F3F31
S1130D10ECF3983EDCF3869577956795B795F79550
S1130D20E7959F5FC1F7FE2B880F911D96958795D8
S1130D3097F9089597F99F6780E870E060E0089557
S1130D409FEF80EC089500240A94161617061806DF
S1130D500906089500240A941216130614060506BB
S1130D600895092E0394000C11F4882352F0BB0F4C
S1130D7040F4BF2B11F460FF04C06F5F7F4F8F4FAF
S1130D809F4F089597FB092E07260AD077FD04D0BC
S1130D900CD006D000201AF4709561957F4F089509
S1130DA0F6F7909581959F4F0895AA1BBB1B51E1BF
S1130DB007C0AA1FBB1FA617B70710F0A61BB70BC7
S1130DC0881F991F5A95A9F780959095BC01CD016C
S1090DD00895F894FFCF22
S1090DD676616C3A000096
S9030000FC
