S00E000054696D6572732E73726563A2
S11300000C942A000C9447000C9447000C9447006D
S11300100C9447000C9447000C9447000C94470040
S11300200C9447000C9447000C941F010C94F800A6
S11300300C9447000C9447000C9447000C94470020
S11300400C9447000C9447000C9447000C94470010
S11300500C94470011241FBECFE5D8E0DEBFCDBF0E
S113006010E0A0E6B0E0E4E6F6E002C005900D92F0
S1130070A036B107D9F710E0A0E6B0E001C01D92A8
S1130080A436B107E1F70E9449000C9430030C94A4
S11300900000CF93DF9300D000D00F92CDB7DEB72E
S11300A0BB9A82E089831D821C828A831B82CE01D3
S11300B001960E945F0082E30E94BA00FFCFFC0118
S11300C0009709F44AC09093610080936000808196
S11300D0813041F0813018F08430F0F40AC083B7E5
S11300E083BF1AC083B7877F83BF83B7806483BF0E
S11300F013C083B7886483BFBB9A8081823021F4A4
S113010083B7806383BF08C0833031F483B78F7EA5
S113011083BF83B7806283BF93B78181892B83BFF9
S113012081818650823008F4B89A8281882379F0DC
S11301308FB780688FBF8281813021F489B7816055
S113014089BF05C0823019F489B7826089BF838171
S113015094819093630080936200089583B7887FAD
S113016083BF08959CB7892B8CBF089522B7FC01E7
S113017020830895E0916000F091610090819230B5
S1130180F1F4682F70E080E090E00E94410220E0EA
S113019030E048EC52E40E94AB0120E030E040E85B
S11301A053E40E94CD029B01AC0160E070E08FE754
S11301B093E40E9446010E9413026CBF0895933099
S11301C0B1F4682F70E080E090E00E94410220E0EA
S11301D030E048EC52E40E94AB0120E030E040E81B
S11301E053E40E94CD020E94130261506CBF089533
S11301F01F920F920FB60F9211242F933F934F9398
S11302005F936F937F938F939F93AF93BF93EF937A
S1130210FF93E0916200F09163000995FF91EF91E3
S1130220BF91AF919F918F917F916F915F914F910A
S11302303F912F910F900FBE0F901F9018951F9212
S11302400F920FB60F9211242F933F934F935F9306
S11302506F937F938F939F93AF93BF93EF93FF938A
S1130260E0916200F09163000995FF91EF91BF91D5
S1130270AF919F918F917F916F915F914F913F913A
S11302802F910F900FBE0F901F9018955058BB27B9
S1130290AA270ED048C139D130F03ED120F031F434
S11302A09F3F11F41EF42EC10EF4E095E7FB24C128
S11302B0E92F4AD180F3BA176207730784079507B9
S11302C018F071F49EF562C10EF4E0950B2EBA2F6E
S11302D0A02D0B01B90190010C01CA01A001112448
S11302E0FF27591B99F0593F50F4503E68F11A16F4
S11302F0F040A22F232F342F4427585FF3CF469585
S113030037952795A795F0405395C9F77EF41F16A6
S1130310BA0B620B730B840BBAF09150A1F0FF0F70
S1130320BB1F661F771F881FC2F70EC0BA0F621F5C
S1130330731F841F48F4879577956795B795F7954C
S11303409E3F08F0B3CF9395880F08F09927EE0FDE
S11303509795879508950CD0E6C0DED040F0D5D0AF
S113036030F021F45F3F19F0C7C0511110C1CAC069
S1130370EBD098F39923C9F35523B1F3951B550B8F
S1130380BB27AA2762177307840738F09F5F5F4F64
S1130390220F331F441FAA1FA9F333D00E2E3AF0A5
S11303A0E0E830D091505040E695001CCAF729D0BF
S11303B0FE2F27D0660F771F881FBB1F261737070E
S11303C04807AB07B0E809F0BB0B802DBF01FF273E
S11303D093585F4F2AF09E3F510568F08DC0D7C0F7
S11303E05F3FECF3983EDCF3869577956795B79578
S11303F0F7959F5FC9F7880F911D9695879597F993
S11304000895E1E0660F771F881FBB1F621773070B
S11304108407BA0720F0621B730B840BBA0BEE1F20
S113042088F7E095089598D088F09F5790F0B92FF9
S11304309927B751A0F0D1F0660F771F881F991F35
S11304401AF0BA95C9F712C0B13081F09FD0B1E06B
S113045008959CC0672F782F8827B85F39F0B93F7B
S1130460CCF3869577956795B395D9F73EF4909537
S11304708095709561957F4F8F4F9F4F0895E894B5
S113048009C097FB3EF490958095709561957F4FD8
S11304908F4F9F4F9923A9F0F92F96E9BB27939586
S11304A0F695879577956795B795F111F8CFFAF496
S11304B0BB0F11F460FF1BC06F5F7F4F8F4F9F4FC7
S11304C016C0882311F096E911C0772321F09EE825
S11304D0872F762F05C0662371F096E8862F70E08B
S11304E060E02AF09A95660F771F881FDAF7880F65
S11304F09695879597F9089597F99F6780E870E036
S113050060E008959FEF80EC089500240A94161685
S1130510170618060906089500240A9412161306ED
S1130520140605060895092E0394000C11F488237B
S113053052F0BB0F40F4BF2B11F460FF04C06F5F97
S11305407F4F8F4F9F4F089557FD9058440F551F6D
S113055059F05F3F71F04795880F97FB991F61F041
S11305609F3F79F087950895121613061406551FB8
S1130570F2CF4695F1DF08C0161617061806991F24
S1130580F1CF86957105610508940895E894BB2719
S113059066277727CB0197F908950BD0C4CFB5DF31
S11305A028F0BADF18F0952309F0A6CFABCF1124B9
S11305B0EECFCADFA0F3959FD1F3950F50E0551FFE
S11305C0629FF001729FBB27F00DB11D639FAA27A4
S11305D0F00DB11DAA1F649F6627B00DA11D661FF3
S11305E0829F2227B00DA11D621F739FB00DA11D14
S11305F0621F839FA00D611D221F749F3327A00DCE
S1130600611D231F849F600D211D822F762F6A2F69
S113061011249F5750408AF0E1F088234AF0EE0FEE
S1130620FF1FBB1F661F771F881F91505040A9F7FB
S11306309E3F510570F060CFAACF5F3FECF3983E28
S1130640DCF3869577956795B795F795E7959F5F62
S1130650C1F7FE2B880F911D9695879597F90895FC
S1070660F894FFCF38
S9030000FC
