:100000000C942A000C9447000C9447000C94470071
:100010000C9447000C9447000C9447000C94470044
:100020000C9447000C9447000C94EF000C94C8000B
:100030000C9447000C9447000C9447000C94470024
:100040000C9447000C9447000C9447000C94470014
:100050000C94470011241FBECFE5D8E0DEBFCDBF12
:1000600010E0A0E6B0E0E0E3F2E002C005900D92FF
:10007000A036B107D9F710E0A0E6B0E001C01D92AC
:10008000A436B107E1F70E9449000C9416010C94C4
:100090000000CF93DF9300D000D00F92CDB7DEB732
:1000A000BB9A82E089831D821C828A831B82CE01D7
:1000B00001960E945F0082E30E94BA00FFCFFC011C
:1000C000009709F44AC0909361008093600080819A
:1000D000813041F0813018F08430F0F40AC083B7E9
:1000E00083BF1AC083B7877F83BF83B7806483BF12
:1000F00013C083B7886483BFBB9A8081823021F4A8
:1001000083B7806383BF08C0833031F483B78F7EA9
:1001100083BF83B7806283BF93B78181892B83BFFD
:1001200081818650823008F4B89A8281882379F0E0
:100130008FB780688FBF8281813021F489B7816059
:1001400089BF05C0823019F489B7826089BF838175
:1001500094819093630080936200089583B7887FB1
:1001600083BF08959CB7892B8CBF089522B7FC01EB
:1001700020830895E0916000F091610090819230B9
:1001800019F480958CBF0895933009F48CBF0895BD
:100190001F920F920FB60F9211242F933F934F93FC
:1001A0005F936F937F938F939F93AF93BF93EF93DF
:1001B000FF93E0916200F09163000995FF91EF9148
:1001C000BF91AF919F918F917F916F915F914F916F
:1001D0003F912F910F900FBE0F901F9018951F9277
:1001E0000F920FB60F9211242F933F934F935F936B
:1001F0006F937F938F939F93AF93BF93EF93FF93EF
:10020000E0916200F09163000995FF91EF91BF9139
:10021000AF919F918F917F916F915F914F913F919E
:100220002F910F900FBE0F901F901895F894FFCF4D
:00000001FF
