:100000000C942A000C940F040C943E040C946D0480
:100010000C9447000C9447000C9447000C94470044
:100020000C9447000C9447000C9447000C94470034
:100030000C9447000C9447000C9447000C94470024
:100040000C9447000C9447000C9447000C94470014
:100050000C94470011241FBECFE5D8E0DEBFCDBF12
:1000600010E0A0E6B0E0E4E8F9E002C005900D92EF
:10007000A036B107D9F710E0A0E6B0E001C01D92AC
:10008000A036B107E1F70E94E8030C94C0040C9479
:10009000000040E00E94500008950E949A020895D6
:1000A000843409F471C0853448F4823499F183347E
:1000B00008F04DC0813409F083C00FC0823651F181
:1000C000833620F4813609F07BC007C0833609F4FB
:1000D0003EC0843609F074C057C0413069F42AB379
:1000E00081E090E0AC0102C0440F551F6A95E2F731
:1000F000BA01622B6ABB08952AB381E090E0AC019B
:1001000002C0440F551F6A95E2F7BA016095622359
:100110006ABB0895413069F427B381E090E0AC01F7
:1001200002C0440F551F6A95E2F7BA01622B67BB04
:10013000089527B381E090E0AC0102C0440F551F41
:100140006A95E2F7BA016095622367BB0895413072
:1001500069F424B381E090E0AC0102C0440F551F64
:100160006A95E2F7BA01622B64BB089524B381E07B
:1001700090E0AC0102C0440F551F6A95E2F7BA0146
:100180006095622364BB0895413069F421B381E036
:1001900090E0AC0102C0440F551F6A95E2F7BA0126
:1001A000622B61BB089521B381E090E0AC0102C0F5
:1001B000440F551F6A95E2F7BA016095622361BB4F
:1001C00008958434D9F0853438F4823499F0833436
:1001D00098F48134A1F40CC0823661F0833618F4AF
:1001E000813669F405C0833639F0843641F406C09F
:1001F0006ABB089567BB089564BB089561BB089509
:10020000843409F471C0853448F4823499F183341C
:1002100008F04DC0813409F083C00FC0823651F11F
:10022000833620F4813609F07BC007C0833609F499
:100230003EC0843609F074C057C0413069F42BB316
:1002400081E090E0AC0102C0440F551F6A95E2F7CF
:10025000BA01622B6BBB08952BB381E090E0AC0137
:1002600002C0440F551F6A95E2F7BA0160956223F8
:100270006BBB0895413069F428B381E090E0AC0194
:1002800002C0440F551F6A95E2F7BA01622B68BBA2
:10029000089528B381E090E0AC0102C0440F551FDF
:1002A0006A95E2F7BA016095622368BB0895413010
:1002B00069F425B381E090E0AC0102C0440F551F02
:1002C0006A95E2F7BA01622B65BB089525B381E018
:1002D00090E0AC0102C0440F551F6A95E2F7BA01E5
:1002E0006095622365BB0895413069F422B381E0D3
:1002F00090E0AC0102C0440F551F6A95E2F7BA01C5
:10030000622B62BB089522B381E090E0AC0102C091
:10031000440F551F6A95E2F7BA016095622362BBEC
:1003200008958434D9F0853438F4823499F08334D4
:1003300098F48134A1F40CC0823661F0833618F44D
:10034000813669F405C0833639F0843641F406C03D
:100350006BBB089568BB089565BB089562BB0895A3
:10036000843409F43DC0853440F48234F9F0833498
:1003700050F5813409F040C00CC08236B9F08336A4
:1003800018F48136C9F505C08336E9F08436A1F545
:1003900027C02BB381E090E0AC0102C0440F551F91
:1003A0006A95E2F7BA0162276BBB089528B381E032
:1003B00090E0AC0102C0440F551F6A95E2F7BA0104
:1003C000622768BB089525B381E090E0AC0102C0CC
:1003D000440F551F6A95E2F7BA01622765BB08957D
:1003E00022B381E090E0AC0102C0440F551F6A9532
:1003F000E2F7BA01622762BB0895843409F47AC037
:10040000853448F48234B1F1833408F053C0813428
:1004100009F08FC00FC0823669F1833620F481362F
:1004200009F087C007C0833609F444C0843609F058
:1004300080C060C09BB381E089278BBB9BB382E007
:1004400089278BBB9BB384E089278BBB9BB388E058
:1004500089278BBB9BB380E189278BBB9BB380E251
:1004600089278BBB9BB380E489278BBB8BB38058D8
:100470008BBB089598B381E0892788BB98B382E04D
:10048000892788BB98B384E0892788BB98B388E024
:10049000892788BB98B380E1892788BB98B380E21D
:1004A000892788BB98B380E4892788BB88B38058A4
:1004B00088BB089595B381E0892785BB95B382E019
:1004C000892785BB95B384E0892785BB95B388E0F0
:1004D000892785BB95B380E1892785BB95B380E2E9
:1004E000892785BB95B380E4892785BB85B3805870
:1004F00085BB089592B381E0892782BB92B382E0E5
:10050000892782BB92B384E0892782BB92B388E0BB
:10051000892782BB92B380E1892782BB92B380E2B4
:10052000892782BB92B380E4892782BB82B380583B
:1005300082BB0895843409F451C0853440F4823478
:1005400039F18334C0F5813409F05AC00EC08236C7
:10055000F9F0833620F4813609F052C006C08336A4
:1005600051F1843609F04CC039C029B381E090E0E4
:10057000062E02C0880F991F0A94E2F730E082230A
:10058000932302C0959587956A95E2F7982F38C016
:1005900026B381E090E0062E02C0880F991F0A94CE
:1005A000E2F730E08223932302C0959587956A9500
:1005B000E2F7982F25C023B381E090E0062E02C019
:1005C000880F991F0A94E2F730E08223932302C038
:1005D000959587956A95E2F7982F12C020B381E030
:1005E00090E0062E02C0880F991F0A94E2F730E0CF
:1005F0008223932302C0959587956A95E2F7982FF9
:10060000892F08958434D9F0853438F4823499F0F0
:10061000833498F48134A1F40CC0823661F08336BF
:1006200018F4813669F405C0833639F0843641F414
:1006300006C099B305C096B303C093B301C090B38D
:10064000892F0895843409F43DC0853440F4823400
:10065000F9F0833450F5813409F040C00CC0823683
:10066000B9F0833618F48136C9F505C08336E9F050
:100670008436A1F527C02BB381E090E0AC0102C025
:10068000440F551F6A95E2F7BA01622B6BBB0895C0
:1006900028B381E090E0AC0102C0440F551F6A9579
:1006A000E2F7BA01622B68BB089525B381E090E0C0
:1006B000AC0102C0440F551F6A95E2F7BA01622BE4
:1006C00065BB089522B381E090E0AC0102C0440F05
:1006D000551F6A95E2F7BA01622B62BB08956F70ED
:1006E000843451F1853438F48234C1F08334E8F431
:1006F000813441F50CC0823689F0833618F4813696
:1007000009F505C0833689F08436E1F415C08BB352
:10071000807F8BBB8BB3682B6BBB089588B3807FC6
:1007200088BB88B3682B68BB089585B3807F85BB81
:1007300085B3682B65BB089582B3807F82BB82B38B
:10074000682B62BB08956295607F843451F18534D3
:1007500038F48234C1F08334E8F4813441F50CC0BC
:10076000823689F0833618F4813609F505C0833660
:1007700089F08436E1F415C08BB38F708BBB8BB3DB
:10078000682B6BBB089588B38F7088BB88B3682BC8
:1007900068BB089585B38F7085BB85B3682B65BB37
:1007A000089582B38F7082BB82B3682B62BB0895B9
:1007B0008FB780688FBF8BB7806E8BBF85B7816026
:1007C00085BF85B78C6085BF84B78F7B84BF089554
:1007D0000E94D80382E662E00E94490084E662E05B
:1007E0000E94490084E663E00E94490081E660E0DF
:1007F0000E949C0481E661E00E949C0481E662E024
:100800000E949C0481E660E00E94A40481E661E00D
:100810000E94A40481E662E00E94A404F3CF1F9228
:100820000F920FB60F9211242F933F934F935F9324
:100830006F937F938F939F93AF93BF93EF93FF93A8
:1008400081E660E00E94A0048FEF99E6A8E1815064
:100850009040A040E1F700C00000FF91EF91BF91F0
:10086000AF919F918F917F916F915F914F913F9148
:100870002F910F900FBE0F901F9018951F920F92FF
:100880000FB60F9211242F933F934F935F936F9363
:100890007F938F939F93AF93BF93EF93FF9381E6E3
:1008A00061E00E94A0048FEF99E6A8E1815090409A
:1008B000A040E1F700C00000FF91EF91BF91AF9120
:1008C0009F918F917F916F915F914F913F912F9168
:1008D0000F900FBE0F901F9018951F920F920FB69A
:1008E0000F9211242F933F934F935F936F937F93B6
:1008F0008F939F93AF93BF93EF93FF9381E662E053
:100900000E94A0048FEF99E6A8E181509040A0409A
:10091000E1F700C00000FF91EF91BF91AF919F916F
:100920008F917F916F915F914F913F912F910F9098
:100930000FBE0F901F90189541E00E94500008953F
:1009400041E00E940001089540E00E9400010895E6
:100950000E94B00108950E949A0208956FEF0E94CC
:10096000E10008956FEF0E949101089560E00E94F8
:10097000910108950E94FD0108950E9402030895C7
:04098000F894FFCF19
:00000001FF
